:1000000045C0000053C0000051C000004FC00000B8
:100010004DC000004BC0000049C0000047C00000B8
:1000200045C0000043C0000041C000003FC00000C8
:100030003DC000003BC0000039C0000037C00000D8
:1000400035C0000033C0000031C000002FC00000E8
:100050002DC000002BC0000029C0000027C00000F8
:1000600025C0000023C0000021C000001FC0000008
:100070001DC000001BC0000019C0000017C0000018
:1000800015C0000013C0000011C0000011241FBEE5
:10009000CFEFD0E4DEBFCDBF21E0A0E0B1E001C0F2
:1000A0001D92A330B207E1F770D078C0A9CF80B11C
:1000B000809583708093000190910201923019F134
:1000C00028F4992349F0913059F03AC0943019F14D
:1000D000F0F0953071F134C081E080930201089511
:1000E000813021F482E08093020139C0823021F412
:1000F00083E0809302013CC0833009F045C085E075
:10010000809302013EC084E080930201089584E060
:100110008093020108959FEF980F9230A8F18330E9
:1001200021F485E0809302012CC081E080930201DC
:1001300008958150823028F181E080930201089572
:10014000923069F018F4992331F00895933081F0DA
:100150009530B9F008951092010115B80895809175
:100160000101893088F48F5F8093010185B908957A
:1001700080910101882341F081508093010185B96C
:1001800008951092010115B8089511B88FEF82B942
:1001900084B915B8109202018ADFFECFF894FFCF20
:00000001FF
